:020000040800F2
:1000000078060020CD010008D5010008D7010008BE
:10001000D9010008DB010008DD0100080000000034
:10002000000000000000000000000000DF010008E8
:10003000E101000800000000E3010008E5010008FC
:10004000E7010008E7010008E7010008E7010008F0
:10005000E7010008E7010008E7010008E7010008E0
:10006000E7010008E7010008E7010008E7010008D0
:10007000E7010008E7010008E7010008E7010008C0
:10008000E7010008E7010008E7010008E7010008B0
:10009000E7010008E7010008E7010008E7010008A0
:1000A000E7010008E7010008E7010008E701000890
:1000B000ED060008EF060008E7010008E701000868
:1000C000E7010008E7010008E7010008E701000870
:1000D000E7010008E7010008E7010008E701000860
:1000E000E7010008E7010008E7010008E701000850
:1000F000E7010008E7010008E7010008E701000840
:10010000E7010008E7010008E7010008E70100082F
:10011000E7010008E7010008E7010008E70100081F
:10012000E7010008E7010008E7010008E70100080F
:1001300000F002F800F03AF80AA090E8000C8244BF
:100140008344AAF10107DA4501D100F02FF8AFF29C
:10015000090EBAE80F0013F0010F18BFFB1A43F0A5
:10016000010318472C0B00004C0B0000103A24BF71
:1001700078C878C1FAD8520724BF30C830C144BF0C
:1001800004680C607047000000230024002500264E
:10019000103A28BF78C1FBD8520728BF30C148BFEA
:1001A0000B6070471FB51FBD10B510BD00F031F8D2
:1001B0001146FFF7F7FF00F051FD00F04FF803B4D0
:1001C000FFF7F2FF03BC00F053F800000948804736
:1001D00009480047FEE7FEE7FEE7FEE7FEE7FEE729
:1001E000FEE7FEE7FEE7FEE704480549054A064B41
:1001F000704700008D0600083101000878000020DB
:1002000078060020780200207802002070477047AE
:100210007047754600F028F8AE460500694653461B
:1002200020F00700854618B020B5FFF7DDFFBDE8D8
:1002300020404FF000064FF000074FF000084FF04D
:10024000000B21F00701AC46ACE8C009ACE8C009DE
:10025000ACE8C009ACE8C0098D4670470446AFF36E
:1002600000802046FFF7ABFF0048704714000020D5
:1002700001491820ABBEFEE72600020070470000CF
:1002800008B50121102000F003F97220ADF800003C
:1002900010208DF8030003208DF802006946024803
:1002A00000F004F808BD0000001001402DE9F04105
:1002B000024600250026002000230024002791F894
:1002C00003C00CF00F0591F803C00CF0100CBCF14A
:1002D000000F03D091F802C04CEA050591F800C068
:1002E000BCF1000F31D0146800202BE04FF0010C5E
:1002F0000CFA00F3B1F800C00CEA03069E4220D1CC
:1003000083004FF00F0C0CFA03F7BC4305FA03FC13
:100310004CEA040491F803C0BCF1280F06D14FF059
:10032000010C0CFA00FCC2F814C00AE091F803C0FA
:10033000BCF1480F05D14FF0010C0CFA00FCC2F8DB
:1003400010C0401C0828D1D31460B1F800C0BCF123
:10035000FF0F34DD546800202EE000F1080C4FF050
:10036000010808FA0CF3B1F800C00CEA03069E423B
:1003700021D183004FF00F0C0CFA03F7BC4305FAB0
:1003800003FC4CEA040491F803C0BCF1280F05D12A
:1003900000F1080C08FA0CF8C2F8148091F803C0B8
:1003A000BCF1480F07D100F1080C4FF0010808FA22
:1003B0000CF8C2F81080401C0828CED35460BDE869
:1003C000F0814161704701617047000070B5002104
:1003D00000230F22C47804B3154C246804F4E064AD
:1003E000C4F5E064210AC1F10403CA40447804FA68
:1003F00003F184781440214309010E4C0678A1557D
:10040000047804F01F050124AC4005786D11AD009F
:1004100005F1E025C5F8004109E0047804F01F0566
:100420000124AC40044D0678761145F8264070BD95
:100430000CED00E000E400E080E100E0024901434F
:10044000024A1160704700000000FA050CED00E060
:1004500029B1064AD2690243044BDA6104E0034A37
:10046000D2698243014BDA617047000000100240FC
:1004700029B1064A12690243044B1A6104E0034A97
:1004800012698243014B1A6170470000001002405C
:1004900029B1064A92690243044B9A6104E0034A77
:1004A00092698243014B9A6170470000001002403C
:1004B00029B1064AD2680243044BDA6004E0034AD9
:1004C000D2688243014BDA6070470000001002409E
:1004D00030B500210022002400232D4D6D6805F069
:1004E0000C0121B1042905D0082923D105E0294DAB
:1004F000056022E0274D05601FE0254D6D6805F47D
:100500007012234D6D6805F48034022505EB92428C
:100510001CB9214D554305600BE01D4D6D6805F478
:1005200000351DB11C4D5543056002E0194D554382
:10053000056002E0174D056000BF00BF144D6D68F7
:1005400005F0F0010909154D6B5C0568DD4045605B
:100550000F4D6D6805F4E061090A104D6B5C45684C
:10056000DD4085600A4D6D6805F46051C90A0B4D88
:100570006B5C4568DD40C560054D6D6805F4404124
:10058000890B074D6B5CC568B5FBF3F5056130BDA4
:100590000010024000127A0000093D000000002017
:1005A0001000002010B500F001F810BD0CB50020BF
:1005B000019000903348006840F480303149086071
:1005C00000BF3048006800F4003000900198401CE3
:1005D0000190009818B90198B0F5A06FF1D12948A1
:1005E000006800F4003010B10120009001E000200C
:1005F00000900098012843D12348006840F0100083
:10060000214908600846006820F003000860084699
:10061000006840F0020008601A48406819494860C4
:100620000846406848600846406840F4806048607A
:100630000846406820F47C1048600846406840F452
:10064000E81048600846006840F08070086000BF0D
:100650000C48006800F000700028F9D00948406894
:1006600020F00300074948600846406840F0020057
:10067000486000BF0348406800F00C000828F9D12A
:100680000CBD0000001002400020024010B51348CD
:10069000006840F0010011490860084640681049B0
:1006A00008400E494860084600680E4908400B495A
:1006B00008600846006820F480200860084640680A
:1006C00020F4FE0048604FF41F008860FFF76AFFC7
:1006D0004FF000600449086010BD000000100240A7
:1006E0000000FFF8FFFFF6FE08ED00E070477047DE
:1006F0001FB501210846FFF7ABFE4FF0804000F028
:1007000083F8324800F080F84FF0804000F079F92B
:100710000020ADF80400ADF80A00ADF8060040F284
:10072000CF70ADF8080001A94FF0804000F070F9DB
:1007300001A9264800F06CF94FF4C060FFF77EFE77
:100740001C208DF8000000208DF8010002208DF89B
:10075000020001208DF803006846FFF737FE4FF4D2
:10076000C060FFF76BFE1D208DF8000000208DF8A3
:10077000010001208DF802008DF803006846FFF7A4
:1007800025FE0121880700F02FF800214FF080405E
:1007900000F01EF801221146900700F029F901210E
:1007A0000A4800F021F80021084800F011F8012261
:1007B0001146064800F01CF90121880700F017F8DF
:1007C0000121024800F013F81FBD000000040040A2
:1007D00021B1028842F08002028004E002884FF6D4
:1007E0007F731A4002807047CA430282704721B16A
:1007F000028842F00102028004E002884FF6FE7394
:100800001A4002807047000010B5044668488442D0
:1008100008D10121C014FFF74BFE0021E014FFF7BF
:1008200047FEC4E0B4F1804F08D101210846FFF72C
:100830001FFE00210120FFF71BFEB8E05D48844247
:1008400008D101210220FFF713FE00210220FFF74B
:100850000FFEACE05848844208D101210420FFF784
:1008600007FE00210420FFF703FEA0E05348844266
:1008700008D101210820FFF7FBFD00210820FFF728
:10088000F7FD94E04E48844208D101211020FFF783
:10089000EFFD00211020FFF7EBFD88E0494884427E
:1008A00008D101212020FFF7E3FD00212020FFF7E0
:1008B000DFFD7CE04448844208D101214014FFF769
:1008C000F7FD00216014FFF7F3FD70E03F4884421C
:1008D00009D10121C804FFF7EBFD00214FF40020EE
:1008E000FFF7E6FD63E03A48844209D1012108059B
:1008F000FFF7DEFD00214FF48010FFF7D9FD56E031
:100900003448844209D101214805FFF7D1FD002177
:100910004FF40010FFF7CCFD49E02F48844208D186
:1009200001214020FFF7A4FD00214020FFF7A0FD9A
:100930003DE02A48844208D101218020FFF798FD3C
:1009400000218020FFF794FD31E02548844208D142
:1009500001218015FFF78CFD0021A015FFF788FD10
:1009600025E02048844209D101210804FFF7A0FDB9
:1009700000214FF48030FFF79BFD18E01A488442B5
:1009800009D101214804FFF793FD00214FF4003005
:10099000FFF78EFD0BE01548844208D10121880441
:1009A000FFF786FD00214FF48020FFF781FD10BD89
:1009B000002C01400004004000080040000C0040F2
:1009C000001000400014004000340140004C014081
:1009D000005001400054014000180040001C00403D
:1009E0000020004000400140004401400048014018
:1009F0001AB183890B43838102E083898B4383810E
:100A0000704701894FF6F87211400181704700006C
:100A1000002202881D4B98420ED01D4B98420BD0ED
:100A2000B0F1804F08D01B4B984205D01A4B98422A
:100A300002D01A4B984204D14FF68F731A404B885C
:100A40001A43174B984207D0164B984204D04FF6E2
:100A5000FF431A40CB881A4302808B8883850B881A
:100A600003850A4B98420BD0094B984208D00E4B95
:100A7000984205D00D4B984202D00D4B984201D1BF
:100A80000B7A03860123838270470000002C01400B
:100A9000003401400004004000080040000C004009
:100AA000001000400014004000400140004401409C
:100AB0000048014000B587B0012144F20400FFF76F
:100AC000E7FC4FF40070ADF8180018208DF81B00FB
:100AD00003208DF81A0006A91C48FFF7E7FB4FF426
:100AE0008060ADF8180004208DF81B0006A9174897
:100AF000FFF7DCFB4FF4E13002900020ADF80C0072
:100B0000ADF80E00ADF81000ADF814000C20ADF8F3
:100B1000120002A90E4800F029F84FF4C060FFF758
:100B20008DFC25208DF8040000208DF805008DF83F
:100B3000060001208DF8070001A8FFF747FC0121FE
:100B4000034800F007F807B000BD000000080140AE
:100B50000038014021B1828942F40052828104E0D0
:100B600082894DF6FF731A40828170472DE9F04764
:100B700086B005460E460024A24600BFA1460027C7
:100B8000B08900B100BF2F462C8A4CF6FF7004409C
:100B9000F08804432C82AC894EF6F3100440B088F0
:100BA00031890843718908430443AC81AC8A4FF60C
:100BB000FF400440B0890443AC8201A8FFF788FCE1
:100BC0001F48874202D1DDF810A001E0DDF80CA03B
:100BD000A88900F4004040B10AEBCA0000EB0A10FB
:100BE00031684900B0FBF1F807E00AEBCA0000EBFE
:100BF0000A1031688900B0FBF1F86420B8FBF0F00E
:100C000004012009642101FB1089A88900F4004037
:100C100040B1322000EBC900B0FBF1F000F007005A
:100C2000044308E0322000EB09106421B0FBF1F02E
:100C300000F00F0004432C8106B0BDE8F0870000EF
:100C40000038014004E0642100E0491E0029FCD185
:100C50000100A0F10100F6D170470000FFF710FB82
:100C6000FFF746FDFFF726FF0FE04CF25030FFF78D
:100C7000E9FF02210548FFF7A6FB4CF25030FFF7D1
:100C8000E1FF02210148FFF79CFBEEE70010014065
:100C9000B00C000800000020140000006C010008E7
:100CA000C40C00081400002064060000880100083D
:100CB0000000000001020304010203040607080902
:040CC000020406081C
:0400000508000131BD
:00000001FF
