:020000040800F2
:1000000070060020CD010008D5010008D7010008C6
:10001000D9010008DB010008DD0100080000000034
:10002000000000000000000000000000DF010008E8
:10003000E101000800000000E3010008E5010008FC
:10004000E7010008E7010008E7010008E7010008F0
:10005000E7010008E7010008E7010008E7010008E0
:10006000E7010008E7010008E7010008E7010008D0
:10007000E7010008E7010008E7010008E7010008C0
:10008000E7010008E7010008E7010008E7010008B0
:10009000E7010008E7010008E7010008E7010008A0
:1000A000E7010008E7010008E7010008E701000890
:1000B000E7010008E7010008E7010008E701000880
:1000C000E7010008E7010008E7010008E701000870
:1000D000E701000825050008E7010008E70100081E
:1000E000E7010008E7010008E7010008E701000850
:1000F000E7010008E7010008E7010008E701000840
:10010000E7010008E7010008E7010008E70100082F
:10011000E7010008E7010008E7010008E70100081F
:10012000E7010008E7010008E7010008E70100080F
:1001300000F002F800F03AF80AA090E8000C8244BF
:100140008344AAF10107DA4501D100F02FF8AFF29C
:10015000090EBAE80F0013F0010F18BFFB1A43F0A5
:1001600001031847540A0000740A0000103A24BF23
:1001700078C878C1FAD8520724BF30C830C144BF0C
:1001800004680C607047000000230024002500264E
:10019000103A28BF78C1FBD8520728BF30C148BFEA
:1001A0000B6070471FB51FBD10B510BD00F044F8BF
:1001B0001146FFF7F7FF00F021FA00F062F803B4F0
:1001C000FFF7F2FF03BC00F063F800000948804726
:1001D00009480047FEE7FEE7FEE7FEE7FEE7FEE729
:1001E000FEE7FEE7FEE7FEE704480549054A064B41
:1001F00070470000C50400083101000870000020AD
:1002000070060020700200207002002070477047C6
:10021000704710B500F008F8006810BD10B504462E
:1002200000F002F8046010BD004870471000002084
:1002300000487047100000207546FFF7F9FFAE46F2
:1002400005006946534620F00700854618B020B5E2
:10025000FFF7CAFFBDE820404FF000064FF000074F
:100260004FF000084FF0000B21F00701AC46ACE85E
:10027000C009ACE8C009ACE8C009ACE8C0098D46CB
:1002800070470446AFF300802046FFF798FF000058
:1002900001491820ABBEFEE72600020070472DE999
:1002A000F0410246002500260020002300240027FC
:1002B00091F803C00CF00F0591F803C00CF0100C7E
:1002C000BCF1000F03D091F802C04CEA050591F88B
:1002D00000C0BCF1000F31D0146800202BE04FF0BB
:1002E000010C0CFA00F3B1F800C00CEA03069E42C0
:1002F00020D183004FF00F0C0CFA03F7BC4305FA32
:1003000003FC4CEA040491F803C0BCF1280F06D1A9
:100310004FF0010C0CFA00FCC2F814C00AE091F88E
:1003200003C0BCF1480F05D14FF0010C0CFA00FCE2
:10033000C2F810C0401C0828D1D31460B1F800C026
:10034000BCF1FF0F34DD546800202EE000F1080CF2
:100350004FF0010808FA0CF3B1F800C00CEA0306EC
:100360009E4221D183004FF00F0C0CFA03F7BC43DF
:1003700005FA03FC4CEA040491F803C0BCF1280F11
:1003800005D100F1080C08FA0CF8C2F8148091F8B5
:1003900003C0BCF1480F07D100F1080C4FF0010871
:1003A00008FA0CF8C2F81080401C0828CED354601C
:1003B000BDE8F081416170470161704729B1064A8B
:1003C00092690243044B9A6104E0034A92698243B2
:1003D000014B9A61704700000010024010B500F018
:1003E00001F810BD0CB50020019000903348006862
:1003F00040F480303149086000BF3048006800F4A4
:10040000003000900198401C0190009818B90198A4
:10041000B0F5A06FF1D12948006800F4003010B1A8
:100420000120009001E0002000900098012843D1B5
:100430002348006840F01000214908600846006821
:1004400020F0030008600846006840F002000860E1
:100450001A4840681949486008464068486008469C
:10046000406840F4806048600846406820F47C1092
:1004700048600846406840F4E81048600846006854
:1004800040F08070086000BF0C48006800F0007009
:100490000028F9D00948406820F003000749486067
:1004A0000846406840F00200486000BF03484068CA
:1004B00000F00C000828F9D10CBD0000001002402B
:1004C0000020024010B51348006840F001001149B7
:1004D000086008464068104908400E4948600846D0
:1004E00000680E4908400B4908600846006820F47F
:1004F000802008600846406820F4FE0048604FF401
:100500001F008860FFF76AFF4FF000600449086031
:1005100010BD0000001002400000FFF8FFFFF6FED3
:1005200008ED00E010B52021064800F00DF840F27B
:100530002551044800F011F818B94121014800F094
:1005400036F810BD0038014001F40072B2F5007FAA
:1005500000D100BFCA430280704770B50246002434
:1005600000230025002040F66A16B14200D100BFEA
:10057000C1F3421501F01F03012606FA03F3012D12
:1005800002D19689334006E0022D02D1168A33400B
:1005900001E0968A33400C12012606FA04F416880C
:1005A000344013B10CB1012000E0002070BDC1F354
:1005B00008028280704741F2883105E0024600E07F
:1005C000521E002AFCD1491E0029F7D170470000B5
:1005D00008B501211020FFF7F1FE3F20ADF8000023
:1005E00010208DF8030003208DF8020069460248B0
:1005F000FFF755FE08BD0000001001402DE9FC4149
:1006000000204249086048604FF4FA700090019061
:1006100000203F4908604860FFF7DAFF33E03C49BB
:10062000096849433A4A5268A2F5FA72384B5B6846
:10063000A3F5FA7302FB031000F000F9064600F080
:100640006BF804460022334B00F09AF901D800F011
:10065000C5F82F49096849432D4A5268A2F5FA7234
:100660002B4B5B68A3F5FA7302FB031000F0E6F86E
:10067000064600F051F804460022264B00F0F6F83A
:1006800001D200F08DF82248406801998842C6DB0B
:1006900033E01F49096849431D4A5268A2F5FA72BE
:1006A0001B4B5B68A3F5FA7302FB031000F0C6F85E
:1006B000064600F031F804460022164B00F060F9BF
:1006C00001D800F04FF8124909684943104A5268AE
:1006D000A2F5FA720E4B5B68A3F5FA7302FB0310E6
:1006E00000F0ACF8064600F017F804460022094B6B
:1006F00000F0BCF801D200F071F80548406801999B
:1007000049008842C5DB0020BDE8FC8100000020D4
:100710000800002000407F402DE9F04106460F46CA
:1007200000F064F904000D4618BF0120284320F0B2
:100730000040C0F17F6000F1E040C00F0ED0301CDF
:1007400018BF0120384320F00040C0F17F6000F165
:10075000E040C00F04BF0120FFF760FD204629469E
:10076000BDE8F08110B501210B48FFF725FE0B48CD
:100770000068401E0949086002210748FFF71CFE77
:100780000A20FFF718FF02210348FFF713FE0A2093
:10079000FFF711FF10BD000000100140080000200D
:1007A00010B501210B48FFF705FE0B480068401CFF
:1007B0000949086002210748FFF7FEFD0A20FFF7FC
:1007C000FAFE02210348FFF7F5FD0A20FFF7F3FECA
:1007D00010BD0000001001400800002010B50421E9
:1007E0000E48FFF7E9FD0E484068401C0C49486080
:1007F00000240FE008210948FFF7DEFD0A20FFF77B
:10080000DAFE08210548FFF7D5FD0A20FFF7D3FEE1
:10081000601CC4B2042CEDDB10BD000000100140D0
:1008200008000020491058BFC1F140415B1058BF7B
:10083000C3F140438B42EFF30080704710F0004259
:1008400048BF4042B0FA80F310FA03F10AD0C3F176
:100850001D0303F580634FEA415002EB035202EBA4
:10086000D12170474FF000007047000051EA030C9F
:1008700017D41CF5801F58BFBCF5801F00F10680FF
:10088000994218BF704708BF9042704707D711F5CB
:10089000801F58BF13F5801F19D4994270478942B1
:1008A00070471CF5801F08D5BCF5801FF7D58B421B
:1008B00018BF704708BF824270474FF4001C1CEB02
:1008C000410F38BF1CEB430F01D28B42704770B50C
:1008D00000F008F8922449004FF000514FF0805387
:1008E000FFF7A0BF0EF1020E2EF0030E5EF8046BB0
:1008F000364205D4012A43EB030515F5001F12D833
:10090000012841EB010C1CF5001F0CD80ED14FEA59
:10091000D17C15F5001F0CEB4C0C0CF1020C08BF40
:100920004CEBD37C04E04FF0080C01E04FEAD37CA1
:100930000CEB4C0526FA05F606F00706B6F1040C9A
:1009400006D20EEB860CBDE870404CF0010C6047FF
:10095000DFE80CF0090B02024FF000414FF00000FD
:10096000A1F5002170BD19461046012851EB010484
:1009700018BFD4F5001484BF002001F0004170BD01
:1009800053EA010C17D41CF5801F58BFBCF5801F1B
:1009900000F106808B4218BF704708BF8242704743
:1009A00007D713F5801F58BF11F5801F19D48B424C
:1009B00070479B4270471CF5801F08D5BCF5801F0F
:1009C000F7D5994218BF704708BF904270474FF45F
:1009D000001C1CEB430F38BF1CEB410F01D29942A6
:1009E00070470FB40CBC03BCFFF771BF2DE9F04199
:1009F00001F5801CBCF5001FC0F2C3804FEA115CFA
:100A000021EA0C510CF1FD0C41F480115FEA5C0C01
:100A10000CF5C07C01D3400049413DA4890241EA64
:100A2000905187028E0E0A0CA45D04FB04F602FBB3
:100A300006F6C6F14046A4FB0662F60D46EA4226DB
:100A400006FB06F4A4FB01235242C3F1404338BF26
:100A50005B1EA6FB02420024E6FB0324D20B42EA03
:100A60004446A6FB0623A1FB02E2A3FB07E4A4186D
:100A70004FF0000252F10002E3FB01426442C2F176
:100A8000404E38BFAEF1010EA6FB04234FF000022A
:100A9000E6FB0E32A2FB03464FF00004B61954F1F8
:100AA0000004E2FB0264A1FB06E6A4FB07E816EBE8
:100AB00008064FF0000858F10008E4FB0168764290
:100AC000C8F1405838BFA8F10108A2FB06E4A3FB17
:100AD00008E52D194FF0000454F10004E2FB08541E
:100AE000A1FB05E6A7FB04E818EB06084FF000069B
:100AF00056F10006E1FB048618F1200556F10006C8
:100B0000A809A8F11B08B10908F03F08B8F10A0FBD
:100B100040EA86601CD901EB0C51BDE8F08100BFB2
:100B2000FCF5EEE8E2DDD8D3CFCBC7C3C0BDB9B684
:100B3000B4B1AEACA9A7A5A3A19F9D9B9A98969589
:100B40009392908F8D8C8B89888786858483828110
:100B5000A0FB006800FB01F208EB4208B8EB872815
:100B600007D5341858EB0104D5D5401C51F10001CC
:100B7000D1E7341A78EB0104CDD4401E71F10001A5
:100B8000C9E75FEA4C0C5FEA9C5C0DD105D34FF0DE
:100B9000000001F00041BDE8F081BDE8F04170B512
:100BA000FFF7A0FE6DDBFFBEBDE8F0414FF0000097
:100BB000004970470000F87FD80B000800000020B3
:100BC000100000006C010008E80B00081000002075
:100BD000600600008801000800000000000000001E
:080BE00000000000000000000D
:0400000508000131BD
:00000001FF
